{
  "_format": "hh3-artifact-1",
  "contractName": "TestToken",
  "sourceName": "contracts/TestToken.sol",
  "abi": [
    {
      "inputs": [
        {
          "internalType": "uint256",
          "name": "_initialSupply",
          "type": "uint256"
        }
      ],
      "stateMutability": "nonpayable",
      "type": "constructor"
    },
    {
      "inputs": [],
      "name": "AllowanceOverflow",
      "type": "error"
    },
    {
      "inputs": [
        {
          "internalType": "uint256",
          "name": "available",
          "type": "uint256"
        },
        {
          "internalType": "uint256",
          "name": "required",
          "type": "uint256"
        }
      ],
      "name": "InsufficientAllowance",
      "type": "error"
    },
    {
      "inputs": [
        {
          "internalType": "uint256",
          "name": "available",
          "type": "uint256"
        },
        {
          "internalType": "uint256",
          "name": "required",
          "type": "uint256"
        }
      ],
      "name": "InsufficientBalance",
      "type": "error"
    },
    {
      "inputs": [],
      "name": "ZeroAddressNotAllowed",
      "type": "error"
    },
    {
      "anonymous": false,
      "inputs": [
        {
          "indexed": true,
          "internalType": "address",
          "name": "owner",
          "type": "address"
        },
        {
          "indexed": true,
          "internalType": "address",
          "name": "spender",
          "type": "address"
        },
        {
          "indexed": true,
          "internalType": "uint256",
          "name": "amount",
          "type": "uint256"
        }
      ],
      "name": "Approval",
      "type": "event"
    },
    {
      "anonymous": false,
      "inputs": [
        {
          "indexed": true,
          "internalType": "address",
          "name": "from",
          "type": "address"
        },
        {
          "indexed": true,
          "internalType": "address",
          "name": "to",
          "type": "address"
        },
        {
          "indexed": true,
          "internalType": "uint256",
          "name": "amount",
          "type": "uint256"
        }
      ],
      "name": "Transfer",
      "type": "event"
    },
    {
      "inputs": [
        {
          "internalType": "address",
          "name": "",
          "type": "address"
        },
        {
          "internalType": "address",
          "name": "",
          "type": "address"
        }
      ],
      "name": "allowance",
      "outputs": [
        {
          "internalType": "uint256",
          "name": "",
          "type": "uint256"
        }
      ],
      "stateMutability": "view",
      "type": "function"
    },
    {
      "inputs": [
        {
          "internalType": "address",
          "name": "_spender",
          "type": "address"
        },
        {
          "internalType": "uint256",
          "name": "_amount",
          "type": "uint256"
        }
      ],
      "name": "approve",
      "outputs": [
        {
          "internalType": "bool",
          "name": "success",
          "type": "bool"
        }
      ],
      "stateMutability": "nonpayable",
      "type": "function"
    },
    {
      "inputs": [
        {
          "internalType": "address",
          "name": "",
          "type": "address"
        }
      ],
      "name": "balanceOf",
      "outputs": [
        {
          "internalType": "uint256",
          "name": "",
          "type": "uint256"
        }
      ],
      "stateMutability": "view",
      "type": "function"
    },
    {
      "inputs": [],
      "name": "decimals",
      "outputs": [
        {
          "internalType": "uint8",
          "name": "",
          "type": "uint8"
        }
      ],
      "stateMutability": "view",
      "type": "function"
    },
    {
      "inputs": [
        {
          "internalType": "address",
          "name": "_spender",
          "type": "address"
        },
        {
          "internalType": "uint256",
          "name": "_subtractedAmount",
          "type": "uint256"
        }
      ],
      "name": "decreaseAllowance",
      "outputs": [
        {
          "internalType": "bool",
          "name": "success",
          "type": "bool"
        }
      ],
      "stateMutability": "nonpayable",
      "type": "function"
    },
    {
      "inputs": [
        {
          "internalType": "address",
          "name": "_owner",
          "type": "address"
        }
      ],
      "name": "getAccountInfo",
      "outputs": [
        {
          "internalType": "uint256",
          "name": "balance",
          "type": "uint256"
        },
        {
          "internalType": "uint256",
          "name": "supply",
          "type": "uint256"
        }
      ],
      "stateMutability": "view",
      "type": "function"
    },
    {
      "inputs": [
        {
          "internalType": "address",
          "name": "_spender",
          "type": "address"
        },
        {
          "internalType": "uint256",
          "name": "_addedAmount",
          "type": "uint256"
        }
      ],
      "name": "increaseAllowance",
      "outputs": [
        {
          "internalType": "bool",
          "name": "success",
          "type": "bool"
        }
      ],
      "stateMutability": "nonpayable",
      "type": "function"
    },
    {
      "inputs": [],
      "name": "name",
      "outputs": [
        {
          "internalType": "string",
          "name": "",
          "type": "string"
        }
      ],
      "stateMutability": "view",
      "type": "function"
    },
    {
      "inputs": [],
      "name": "symbol",
      "outputs": [
        {
          "internalType": "string",
          "name": "",
          "type": "string"
        }
      ],
      "stateMutability": "view",
      "type": "function"
    },
    {
      "inputs": [],
      "name": "totalSupply",
      "outputs": [
        {
          "internalType": "uint256",
          "name": "",
          "type": "uint256"
        }
      ],
      "stateMutability": "view",
      "type": "function"
    },
    {
      "inputs": [
        {
          "internalType": "address",
          "name": "_to",
          "type": "address"
        },
        {
          "internalType": "uint256",
          "name": "_amount",
          "type": "uint256"
        }
      ],
      "name": "transfer",
      "outputs": [
        {
          "internalType": "bool",
          "name": "success",
          "type": "bool"
        }
      ],
      "stateMutability": "nonpayable",
      "type": "function"
    },
    {
      "inputs": [
        {
          "internalType": "address",
          "name": "_from",
          "type": "address"
        },
        {
          "internalType": "address",
          "name": "_to",
          "type": "address"
        },
        {
          "internalType": "uint256",
          "name": "_amount",
          "type": "uint256"
        }
      ],
      "name": "transferFrom",
      "outputs": [
        {
          "internalType": "bool",
          "name": "success",
          "type": "bool"
        }
      ],
      "stateMutability": "nonpayable",
      "type": "function"
    }
  ],
  "bytecode": "0x60c0604052600360809081526244314160e81b60a0525f906100219082610177565b5060408051808201909152600381526244314160e81b60208201526001906100499082610177565b506002805460ff19166012179055348015610062575f5ffd5b50604051610ceb380380610ceb83398101604081905261008191610231565b6002546100929060ff16600a610341565b61009c9082610353565b6003819055335f81815260046020526040808220849055517fddf252ad1be2c89b69c2b068fc378daa952ba7f163c4a11628f55a4df523b3ef908290a45061036a565b634e487b7160e01b5f52604160045260245ffd5b600181811c9082168061010757607f821691505b60208210810361012557634e487b7160e01b5f52602260045260245ffd5b50919050565b601f82111561017257805f5260205f20601f840160051c810160208510156101505750805b601f840160051c820191505b8181101561016f575f815560010161015c565b50505b505050565b81516001600160401b03811115610190576101906100df565b6101a48161019e84546100f3565b8461012b565b6020601f8211600181146101d6575f83156101bf5750848201515b5f19600385901b1c1916600184901b17845561016f565b5f84815260208120601f198516915b8281101561020557878501518255602094850194600190920191016101e5565b508482101561022257868401515f19600387901b60f8161c191681555b50505050600190811b01905550565b5f60208284031215610241575f5ffd5b5051919050565b634e487b7160e01b5f52601160045260245ffd5b6001815b60018411156102975780850481111561027b5761027b610248565b600184161561028957908102905b60019390931c928002610260565b935093915050565b5f826102ad5750600161033b565b816102b957505f61033b565b81600181146102cf57600281146102d9576102f5565b600191505061033b565b60ff8411156102ea576102ea610248565b50506001821b61033b565b5060208310610133831016604e8410600b8410161715610318575081810a61033b565b6103245f19848461025c565b805f190482111561033757610337610248565b0290505b92915050565b5f61034c838361029f565b9392505050565b808202811582820484141761033b5761033b610248565b610974806103775f395ff3fe608060405234801561000f575f5ffd5b50600436106100b1575f3560e01c806370a082311161006e57806370a08231146101525780637b510fe81461017157806395d89b41146101b2578063a457c2d7146101ba578063a9059cbb146101cd578063dd62ed3e146101e0575f5ffd5b806306fdde03146100b5578063095ea7b3146100d357806318160ddd146100f657806323b872dd1461010d578063313ce56714610120578063395093511461013f575b5f5ffd5b6100bd61020a565b6040516100ca91906107c9565b60405180910390f35b6100e66100e1366004610819565b610295565b60405190151581526020016100ca565b6100ff60035481565b6040519081526020016100ca565b6100e661011b366004610841565b610315565b60025461012d9060ff1681565b60405160ff90911681526020016100ca565b6100e661014d366004610819565b6104fc565b6100ff61016036600461087b565b60046020525f908152604090205481565b61019d61017f36600461087b565b6001600160a01b03165f908152600460205260409020546003549091565b604080519283526020830191909152016100ca565b6100bd6105ce565b6100e66101c8366004610819565b6105db565b6100e66101db366004610819565b6106c7565b6100ff6101ee36600461089b565b600560209081525f928352604080842090915290825290205481565b5f8054610216906108cc565b80601f0160208091040260200160405190810160405280929190818152602001828054610242906108cc565b801561028d5780601f106102645761010080835404028352916020019161028d565b820191905f5260205f20905b81548152906001019060200180831161027057829003601f168201915b505050505081565b5f6001600160a01b0383166102bd576040516342bcdf7f60e11b815260040160405180910390fd5b335f8181526005602090815260408083206001600160a01b038816808552925280832086905551859391927f8c5be1e5ebec7d5bd14f71427d1e84f3dd0314c0f7b2291e5b200ac8c7c3b92591a45060015b92915050565b5f6001600160a01b038416158061033357506001600160a01b038316155b15610351576040516342bcdf7f60e11b815260040160405180910390fd5b6001600160a01b0384165f908152600460205260409020548211156103b7576001600160a01b0384165f9081526004602081905260409182902054915163cf47918160e01b81526103ae9291859101918252602082015260400190565b60405180910390fd5b6001600160a01b0384165f908152600560209081526040808320338452909152902054821115610429576001600160a01b0384165f9081526005602090815260408083203384529091529081902054905163054365bb60e31b81526004810191909152602481018390526044016103ae565b6001600160a01b0384165f9081526004602052604081208054849290610450908490610918565b90915550506001600160a01b0383165f908152600460205260408120805484929061047c90849061092b565b90915550506001600160a01b0384165f908152600560209081526040808320338452909152812080548492906104b3908490610918565b909155505060405182906001600160a01b0380861691908716907fddf252ad1be2c89b69c2b068fc378daa952ba7f163c4a11628f55a4df523b3ef905f90a45060019392505050565b5f6001600160a01b038316610524576040516342bcdf7f60e11b815260040160405180910390fd5b335f9081526005602090815260408083206001600160a01b038716845290915281205490610552848361092b565b90508181101561057557604051637c83383360e11b815260040160405180910390fd5b335f8181526005602090815260408083206001600160a01b038a16808552925280832085905551849391927f8c5be1e5ebec7d5bd14f71427d1e84f3dd0314c0f7b2291e5b200ac8c7c3b92591a4506001949350505050565b60018054610216906108cc565b5f6001600160a01b038316610603576040516342bcdf7f60e11b815260040160405180910390fd5b335f9081526005602090815260408083206001600160a01b0387168452909152902054828110156106515760405163054365bb60e31b815260048101829052602481018490526044016103ae565b61065b8382610918565b335f9081526005602090815260408083206001600160a01b03891684529091529020556106888382610918565b6040516001600160a01b0386169033907f8c5be1e5ebec7d5bd14f71427d1e84f3dd0314c0f7b2291e5b200ac8c7c3b925905f90a45060019392505050565b5f6001600160a01b0383166106ef576040516342bcdf7f60e11b815260040160405180910390fd5b335f9081526004602052604090205482111561073a57335f9081526004602081905260409182902054915163cf47918160e01b81526103ae9291859101918252602082015260400190565b335f9081526004602052604081208054849290610758908490610918565b90915550506001600160a01b0383165f908152600460205260408120805484929061078490849061092b565b909155505060405182906001600160a01b0385169033907fddf252ad1be2c89b69c2b068fc378daa952ba7f163c4a11628f55a4df523b3ef905f90a450600192915050565b602081525f82518060208401528060208501604085015e5f604082850101526040601f19601f83011684010191505092915050565b80356001600160a01b0381168114610814575f5ffd5b919050565b5f5f6040838503121561082a575f5ffd5b610833836107fe565b946020939093013593505050565b5f5f5f60608486031215610853575f5ffd5b61085c846107fe565b925061086a602085016107fe565b929592945050506040919091013590565b5f6020828403121561088b575f5ffd5b610894826107fe565b9392505050565b5f5f604083850312156108ac575f5ffd5b6108b5836107fe565b91506108c3602084016107fe565b90509250929050565b600181811c908216806108e057607f821691505b6020821081036108fe57634e487b7160e01b5f52602260045260245ffd5b50919050565b634e487b7160e01b5f52601160045260245ffd5b8181038181111561030f5761030f610904565b8082018082111561030f5761030f61090456fea264697066735822122029d026d7ece8748eac0507cc5c3837f015010cd8ec6215da2df2f65b43de016264736f6c634300081c0033",
  "linkReferences": {},
  "deployedLinkReferences": {},
  "immutableReferences": {},
  "inputSourceName": "project/contracts/TestToken.sol",
  "buildInfoId": "solc-0_8_28-ec4d741b14d6658df0a0b4264f8092bf4fd54afd"
}